:020000040800F2
:10000000380A0020CD01000817290008A72400089D
:1000100015290008D3020008133200080000000070
:100020000000000000000000000000006B2C000831
:10003000330C000800000000692C0008B52C0008F3
:10004000E7010008E7010008E7010008E7010008F0
:10005000E7010008E7010008E7010008E7010008E0
:10006000E7010008E7010008E7010008E7010008D0
:10007000E7010008E7010008E7010008E7010008C0
:10008000E7010008E7010008E7010008E7010008B0
:10009000E7010008E7010008E7010008E7010008A0
:1000A000E7010008E7010008E7010008E701000890
:1000B000E7010008192D0008E7010008E701000822
:1000C000E7010008E7010008E7010008E701000870
:1000D000E7010008E7010008E7010008E701000860
:1000E000E7010008E7010008E7010008312D0008DA
:1000F000552D0008492D00083D2D0008E701000896
:10010000E7010008E7010008E7010008E70100082F
:10011000F92F0008E7010008252D0008E701000875
:10012000E7010008E7010008E7010008E70100080F
:1001300000F002F800F03AF80AA090E8000C8244BF
:100140008344AAF10107DA4501D100F02FF8AFF29C
:10015000090EBAE80F0013F0010F18BFFB1A43F0A5
:10016000010318474C4300006C430000103A24BFC1
:1001700078C878C1FAD8520724BF30C830C144BF0C
:1001800004680C607047000000230024002500264E
:10019000103A28BF78C1FBD8520728BF30C148BFEA
:1001A0000B6070471FB51FBD10B510BD00F058F8AB
:1001B0001146FFF7F7FF03F049F900F076F803B4B2
:1001C000FFF7F2FF03BC00F07DF80000094880470C
:1001D00009480047FEE7FEE7FEE7FEE7FEE7FEE729
:1001E000FEE7FEE7FEE7FEE704480549054A064B41
:1001F00070470000172D0008310100083804002066
:10020000380A002038060020380600204FF000028F
:1002100000B5134694469646203922BFA0E80C50FC
:10022000A0E80C50B1F12001BFF4F7AF090728BFD7
:10023000A0E80C5048BF0CC05DF804EB890028BF53
:1002400040F8042B08BF704748BF20F8022B11F07C
:10025000804F18BF00F8012B7047704770477047F8
:10026000754600F02BF8AE4605006946534620F06F
:100270000700854618B020B5FFF7B6FFBDE820405F
:100280004FF000064FF000074FF000084FF0000B52
:1002900021F00701AC46ACE8C009ACE8C009ACE805
:1002A000C009ACE8C0098D46704710B50446AFF3ED
:1002B00000802046BDE81040FFF781BF004870472E
:1002C000D403002001491820ABBEFEE7260002003F
:1002D0007047FEE72DE9F05F4D4D4E4C2878002821
:1002E00049D1DFF83491DFF834A1DFF834B1686028
:1002F00003F047FA884606464A46534603F058FA42
:1003000003F00EFA07466060304641465A46454BB8
:1003100003F04EFA03F004FA2066C4F8BC70C4F887
:100320001801384602F0A2FC03F0DAFB00B202F03A
:1003300099FF206E02F09AFC03F0D2FB00B202F0AB
:10034000B9FFD4F8BC0002F091FC03F0C9FB00B285
:1003500002F0D8FFD4F8180102F088FC03F0C0FBCB
:1003600000B202F0F7FF6868401C6860B0F5FA5F01
:10037000BEDB01202870606802F078FC054620682A
:1003800002F074FC014623482A460C3003F072F94F
:1003900003F0A6FB00B202F065FF206E02F066FCDF
:1003A0000546E06D02F062FC01461A482A466830B4
:1003B00003F060F903F094FB00B202F07BFFD4F885
:1003C000BC0002F053FC0546D4F8B80002F04EFC25
:1003D000014610482A46C43003F04CF903F080FB74
:1003E00000B202F08FFFD4F8180102F03FFC05467E
:1003F000D4F8140102F03AFC01462A460A4803F0F8
:1004000039F903F06DFBBDE8F05F00B202F0A2BF66
:10041000000000202400002012A5BDC11726933F34
:10042000BF0E9C33A2B4A73F440100202DE9F05F2A
:100430004D4D4E4C2878002849D1DFF83491DFF833
:1004400034A1DFF834B1686003F09BF988460646B2
:100450004A46534603F0ACF903F062F90746606080
:10046000304641465A46454B03F0A2F903F058F98D
:100470002066C4F8BC70C4F81801384602F0F6FBD8
:1004800003F02EFB00B202F0EDFE206E02F0EEFB58
:1004900003F026FB00B202F00DFFD4F8BC0002F01E
:1004A000E5FB03F01DFB00B202F02CFFD4F81801AD
:1004B00002F0DCFB03F014FB00B202F04BFF6868B3
:1004C000401C6860B0F5FA5FBEDB012028706068F0
:1004D00002F0CCFB0546206802F0C8FB0146234829
:1004E0002A460C3003F0C6F803F0FAFA00B202F024
:1004F000B9FE206E02F0BAFB0546E06D02F0B6FBD5
:1005000001461A482A46683003F0B4F803F0E8FAC6
:1005100000B202F0CFFED4F8BC0002F0A7FB054603
:10052000D4F8B80002F0A2FB014610482A46C430B5
:1005300003F0A0F803F0D4FA00B202F0E3FED4F81E
:10054000180102F093FB0546D4F8140102F08EFB6B
:1005500001462A460A4803F08DF803F0C1FABDE8C7
:10056000F05F00B202F0F6BE000000202400002080
:10057000BF0E9C33A2B4A73F12A5BDC11726933F5F
:10058000440100202DE9F041464D474C2878D8BB66
:100590000020464E464F4FF4FA58686003F0F1F8D9
:1005A00032463B4603F004F903F0BAF86060206677
:1005B000C4F8BC00C4F8180102F058FB03F090FA2C
:1005C00000B202F04FFE206E02F050FB03F088FAFA
:1005D00000B202F06FFED4F8BC0002F047FB03F05B
:1005E0007FFA00B202F08EFED4F8180102F03EFB52
:1005F00003F076FA00B202F0ADFE6868401C686055
:100600004045CBDB01202870606802F02FFB0546D7
:10061000206802F02BFB014623482A460C3003F0E9
:1006200029F803F05DFA00B202F01CFE206E02F021
:100630001DFB0546E06D02F019FB01461A482A46EB
:10064000683003F017F803F04BFA00B202F032FE04
:10065000D4F8BC0002F00AFB0546D4F8B80002F05A
:1006600005FB014610482A46C43003F003F803F0A6
:1006700037FA00B202F046FED4F8180102F0F6FA9A
:100680000546D4F8140102F0F1FA01462A46094859
:1006900002F0F0FF03F024FABDE8F04100B202F0EE
:1006A00059BE00000000002024000020BF0E9C3333
:1006B000A2B4A73F440100202DE9F041464D474C2C
:1006C0002878D8BB0020464E464F4FF4FA58686051
:1006D00003F057F832463B4603F06AF803F020F87F
:1006E00060602066C4F8BC00C4F8180102F0BEFACD
:1006F00003F0F6F900B202F0B5FD206E02F0B6FA92
:1007000003F0EEF900B202F0D5FDD4F8BC0002F01F
:10071000ADFA03F0E5F900B202F0F4FDD4F81801E7
:1007200002F0A4FA03F0DCF900B202F013FE6868EC
:10073000401C68604045CBDB01202870606802F0F7
:1007400095FA0546206802F091FA014623482A46A8
:100750000C3002F08FFF03F0C3F900B202F082FD0B
:10076000206E02F083FA0546E06D02F07FFA014642
:100770001A482A46683002F07DFF03F0B1F900B252
:1007800002F098FDD4F8BC0002F070FA0546D4F8E7
:10079000B80002F06BFA014610482A46C43002F055
:1007A00069FF03F09DF900B202F0ACFDD4F8180126
:1007B00002F05CFA0546D4F8140102F057FA01463B
:1007C0002A46094802F056FF03F08AF9BDE8F041D5
:1007D00000B202F0BFBD0000000000202400002095
:1007E0009A9999999999A9BF4401002070B52C4C08
:1007F0002A482C4960602166C4F81811C4F8BC006E
:1008000002F034FA0546206802F030FA01462A4622
:1008100004F10C0002F02EFF03F062F900B202F0C6
:1008200021FD206E02F022FA0546E06D02F01EFA6C
:1008300001462A4604F1680002F01CFF03F050F95B
:1008400000B202F037FDD4F8BC0002F00FFA054602
:10085000D4F8B80002F00AFA01462A4604F1C400AE
:1008600002F008FF03F03CF900B202F04BFDD4F8AF
:10087000180102F0FBF90546D4F8140102F0F6F96C
:1008800001462A4604F5907002F0F4FE03F028F9C0
:10089000BDE8704000B202F05DBD00000000AF4353
:1008A000240000200000AFC370B52C4C2A482C490E
:1008B00060602166C4F81811C4F8BC0002F0D6F9D3
:1008C0000546206802F0D2F901462A4604F10C00E0
:1008D00002F0D0FE03F004F900B202F0C3FC206E77
:1008E00002F0C4F90546E06D02F0C0F901462A465F
:1008F00004F1680002F0BEFE03F0F2F800B202F06C
:10090000D9FCD4F8BC0002F0B1F90546D4F8B8001F
:1009100002F0ACF901462A4604F1C40002F0AAFE36
:1009200003F0DEF800B202F0EDFCD4F8180102F09A
:100930009DF90546D4F8140102F098F901462A46BB
:1009400004F5907002F096FE03F0CAF8BDE870401E
:1009500000B202F0FFBC00000000AFC32400002082
:100960000000AF432DE9F05F4D4D4E4C2878002834
:1009700049D1DFF83491DFF834A1DFF834B1686091
:1009800002F0FFFE884606464A46534602F010FF34
:1009900002F0C6FE07466060304641465A46454B67
:1009A00002F006FF02F0BCFE2066C4F8BC70C4F87A
:1009B0001801384602F05AF903F092F800B202F03A
:1009C00051FC206E02F052F903F08AF800B202F0F6
:1009D00071FCD4F8BC0002F049F903F081F800B2D0
:1009E00002F090FCD4F8180102F040F903F078F816
:1009F00000B202F0AFFC6868401C6860B0F5FA5FB6
:100A0000BEDB01202870606802F030F905462068DE
:100A100002F02CF9014623482A460C3002F02AFE47
:100A200003F05EF800B202F01DFC206E02F01EF929
:100A30000546E06D02F01AF901461A482A46683068
:100A400002F018FE03F04CF800B202F033FCD4F8C8
:100A5000BC0002F00BF90546D4F8B80002F006F924
:100A6000014610482A46C43002F004FE03F038F86C
:100A700000B202F047FCD4F8180102F0F7F805467E
:100A8000D4F8140102F0F2F801462A460A4802F0AE
:100A9000F1FD03F025F8BDE8F05F00B202F05ABCAA
:100AA000000000202400002012A5BDC1172693BF1E
:100AB000BF0E9C33A2B4A7BF440100202DE9F05F14
:100AC0004D4D4E4C2878002849D1DFF83491DFF89D
:100AD00034A1DFF834B1686002F053FE8846064660
:100AE0004A46534602F064FE02F01AFE0746606072
:100AF000304641465A46454B02F05AFE02F010FE7F
:100B00002066C4F8BC70C4F81801384602F0AEF88C
:100B100002F0E6FF00B202F0A5FB206E02F0A6F89C
:100B200002F0DEFF00B202F0C5FBD4F8BC0002F018
:100B30009DF802F0D5FF00B202F0E4FBD4F81801F2
:100B400002F094F802F0CCFF00B202F003FC6868F7
:100B5000401C6860B0F5FA5FBEDB01202870606859
:100B600002F084F80546206802F080F80146234828
:100B70002A460C3002F07EFD02F0B2FF00B202F015
:100B800071FB206E02F072F80546E06D02F06EF81F
:100B900001461A482A46683002F06CFD02F0A0FFB8
:100BA00000B202F087FBD4F8BC0002F05FF8054603
:100BB000D4F8B80002F05AF8014610482A46C4306A
:100BC00002F058FD02F08CFF00B202F09BFBD4F85B
:100BD000180102F04BF80546D4F8140102F046F86B
:100BE00001462A460A4802F045FD02F079FFBDE8B9
:100BF000F05F00B202F0AEBB000000202400002035
:100C0000BF0E9C33A2B4A7BF12A5BDC1172693BFC8
:100C10004401002010B5002002F024FB002002F067
:100C200049FB002002F06EFBBDE81040002002F0FE
:100C300091BB70472DE9F04100F094F8444CDFF887
:100C400014814FF6FF7594F85400012801D070B15B
:100C500017E0A06D281AA06502F093FD002243461C
:100C600002F0A6FD02F05CFD80F0004008E0A06DFF
:100C700002F087FD0022434602F09AFD02F050FD8B
:100C8000206094F8B000012801D030B111E0D4F810
:100C9000B400281AC4F8B40002E0D4F8B40040420A
:100CA00002F06FFD0022434602F082FD02F038FDA3
:100CB000E06594F80C01284E284F012801D098B126
:100CC0001EE0D4F81001281AC4F81001B83402F05C
:100CD00058FD32463B4602F06BFD02F021FD80F0EC
:100CE000004044F8B8090BE0D4F8100102F049FDC7
:100CF00032463B4602F05CFD02F012FDC4F8B8003B
:100D000094F8680101280FD000280BD1D4F86C01A9
:100D100002F037FD0022434602F04AFD02F000FDDA
:100D2000C4F81401BDE8F081D4F86C01281AC4F8A5
:100D30006C0104F58A7402F024FD0022434602F09F
:100D400037FD02F0EDFC80F000402060EAE7000093
:100D500024000020000013402B8716D9CEF7C33F94
:100D600072B6FEE770B51D4801680868C04340F3DD
:100D700000121B48521C00F8542F4A6A4260174A5E
:100D8000483213681C68E44344F30014641C80F880
:100D90005C405B6A036602F148031C682568ED430A
:100DA00045F300156D1C80F8B850646AC0F8BC406B
:100DB00002F1900425682E68F64346F30016761C6F
:100DC00080F814616D6AC0F81851002048621168FB
:100DD0004862196848622168486270BD9401002029
:100DE0002400002010B590F821100022022905D01F
:100DF0000421816380F82020012010BD01680B6868
:100E000023F00E030B6001680B6823F001030B60F5
:100E100090F84030C46B012101FA03F3636080F85D
:100E2000211080F82020104610BD00002DE9F05F51
:100E300090F821100024022903D0042181630124A9
:100E400085E001680A6822F00E020A6001680A68FB
:100E500022F001020A603F4E3E4FB215DFF8F4C0A7
:100E6000DFF8F090DFF8ECA0DFF8E8B0DFF8E4E0BE
:100E70000168783F13011502ACF1640CA9F1500927
:100E8000AAF13C0AABF1280BAEF1140E4FF4801816
:100E9000B14227D9B9420ED0614512D049451DD083
:100EA000514518D0594518D0714501D1424615E039
:100EB000294EB14201D1012210E0274E1436B14231
:100EC00001D110220AE0244E2836B14206D0224A2F
:100ED0003C32914201D11A4600E02A461E49091FC0
:100EE0000A602BE0B94213D0614517D0494522D0A2
:100EF00051451DD059451DD0714501D142461AE0DA
:100F0000B14202D14FF0807215E0134EB14201D1CF
:100F1000012210E0104E1436B14201D110220AE035
:100F20000D4E2836B14206D00B4A3C32914201D1D7
:100F30001A4600E02A46074980394A60012180F8B4
:100F40002110002180F82010416B01B18847204614
:100F5000BDE8F09F80000240080402402DE9F84FF0
:100F6000DFF8C8910024A9F1040B23460F2709F1EB
:100F7000040AABF1040ED1E00125A54006EA050202
:100F8000AA4276D1DFF8A8C14E68A6EB0C086645E8
:100F90002BD00DDC032E34D005DC36B3012E19D056
:100FA000022E2FD11BE0112E16D0122E2AD119E0BD
:100FB000B8F5881F19D006DCB8F5803F15D0B8F514
:100FC000801F1FD111E0B8F5001F0ED0B8F5041F27
:100FD00018D10AE0CB6815E0CB681B1D12E0CB6886
:100FE00008330FE0CB680C330CE08B682BB1012B7E
:100FF0004FF0080303D0456104E0042302E00561DB
:1010000000E00023FF2A01D8064601E000F10406B3
:101010004FEA840501D9A5F12005D6F8008007FA2A
:1010200005FC28EA0C0803FA05F548EA0508C6F8A5
:1010300000804D68ED0070D53E4DAE6946F001066A
:10104000AE61AD6924F0030605F0010500953A4D47
:1010500006EB050CDCF80850A607360F07FA06F871
:1010600025EA0805DFF8D480404503D14FF0000899
:1010700025E052E0DFF8C880404502D14FF001087A
:101080001DE0DFF8C080404502D14FF0020816E0B5
:10109000DFF8B480404502D14FF003080FE0DFF8DD
:1010A000AC80404502D14FF0040808E0DFF8A08092
:1010B000404502D14FF0050801E04FF0060808FA5C
:1010C00006F848EA0508CCF808804D68D9F80060B1
:1010D000ED024D4601D5164300E096432E604D6863
:1010E000DAF80060AD02554601D5164300E096439C
:1010F0002E604D68DBF80060AD035D4601D51643F8
:1011000000E096432E604D68DEF80060ED03754602
:1011100001D5164300E096432E60641C0A6816460B
:10112000E2407FF429AFBDE8F88F000008040140D9
:1011300000001110001002400000014000080140B2
:10114000000C014000100140001401400018014053
:10115000001C01400AB1016170470904FBE700006F
:101160000148806870470000140000200248816830
:10117000027811448160704714000020074810B5C0
:10118000016841F010010160032000F075F80F20A4
:1011900000F006F800F024F8002010BD0020024006
:1011A00070B50D4D04464FF47A712878B1FBF0F01C
:1011B0000A490968B1FBF0F000F0DCFA48B9102CDC
:1011C00007D200222146501E00F036F800206C6045
:1011D00070BD012070BD0000140000202000002020
:1011E0000C4808B5816941F001018161816901F014
:1011F00001010091C16941F08051C161C06900F0F5
:10120000805000900448416821F0E06141F0007195
:10121000416008BD0010024000000140002809DBC9
:1012200000F01F02012191404009800000F1E02000
:10123000C0F8001170470000F0B40E4B1B680C465C
:10124000C3F30223C3F10705042D00D90425191D9A
:10125000072901D2002300E0DB1E012606FA05F172
:10126000491E214099409E40761E16403143F0BCF5
:1012700001F0D0BF0CED00E0064900F0070208685D
:101280004FF6FF03184040EA0220034A104308606B
:10129000704700000CED00E00000FA052DE9F04772
:1012A0000F46050061D0434E306800F00700B84299
:1012B00009D2306820F0070038433060306800F011
:1012C0000700B84251D128683B4C810712D540072E
:1012D00003D5606840F4E06060602878000703D5BB
:1012E000606840F4605060606068A96820F0F000B9
:1012F000084360602878C00728D06868012810D0AB
:101300002168022810D0890700292EDA616821F0AF
:10131000030101436160FFF723FF804641F28839F2
:101320000DE021688903EFE78901EDE7FFF718FF7A
:10133000A0EB0801494502D90320BDE8F0876068A9
:10134000696800F00C00B0EB810FEFD1306800F05D
:101350000700B8420BD9306820F0070038433060EE
:10136000306800F00700B84201D00120E5E7287896
:10137000400705D56068E96820F4E06008436060D4
:101380002878000706D56068296920F4605040EA93
:10139000C100606000F038F86168084AC1F30311C9
:1013A000515CC8400649086006480068FFF7F8FE2F
:1013B0000020C2E7002002400010024098440008CC
:1013C00020000020180000200448054900684968F2
:1013D000044AC1F30221515CC8407047200000203C
:1013E00000100240A8440008044805490068496804
:1013F000044AC1F3C221515CC8407047200000205C
:1014000000100240A84400080E4A51680E4801F03E
:101410000C03042B11D0082B0FD10C48C1F38343CC
:10142000C903C05C0AD55168084AC1F34041921E05
:10143000515C054A5043B0FBF1F070470449484302
:10144000704700000010024000127A008844000833
:1014500000093D002DE9F84F040070D02078C04D00
:10146000C00749D06868C0F38100012807D06868C8
:10147000C0F38100022809D16868C00306D5286836
:10148000800339D560680028E7D035E06068B0F5A2
:10149000803F0BD010B1B0F5A02F11D0286820F4F8
:1014A00080302860286820F4802002E0286840F41A
:1014B00080302860606890B1FFF752FE06460AE06F
:1014C000286840F480202860F0E700BFFFF748FE5E
:1014D000801B642873D828688003F7D50CE0FFF7D9
:1014E0003FFE064605E000BFFFF73AFE801B64287A
:1014F000F0D828688003F7D420789A4E80074FF000
:1015000001094FF0000839D5686810F00C0F07D0BA
:101510006868C0F38100022809D16868C00306D456
:101520002868800714D52069012808D110E02069B7
:10153000B0B1C6F80090FFF713FE074605E00AE1D8
:10154000FFF70EFEC01B0228C4D828688007F7D515
:101550002868616920F0F80040EAC10028600DE0C9
:10156000C6F80080FFF7FCFD074604E0FFF7F8FD32
:10157000C01B022823D828688007F7D420780007EA
:101580002CD57948A169D9B1C0F80090FFF7E8FDE2
:10159000074604E0FFF7E4FDC01B02280FD8686A85
:1015A0008007F7D571484FF4FA510068B0FBF1F0AD
:1015B000009000BF0098411E0091FAD20EE080E03A
:1015C000C0F80080FFF7CCFD074604E0FFF7C8FD38
:1015D000C01B022875D8686A8007F7D420784007B6
:1015E00060D5E8690027C00008D4E86940F0805061
:1015F000E861E869012700F0805000905C480168CC
:10160000C90513D40168834641F480710160FFF776
:10161000A7FD824606E000BFFFF7A2FDA0EB0A008F
:1016200064284ED8DBF80000C005F5D5E068012835
:101630000AD008B1052813D0286A20F001002862DA
:10164000286A20F0040002E0286A40F001002862C5
:10165000E06841F2883B98B1FFF782FD82460BE0DB
:10166000286A40F004002862EEE700BFFFF778FD2B
:10167000A0EB0A0159455AD8286A8007F6D50CE034
:10168000FFF76EFD824605E0FFF76AFDA0EB0A0159
:1016900059454CD8286A8007F6D41FB1E86920F074
:1016A0008050E861E06988B36968C1F3810102296B
:1016B00044D00228C6F8608004D0FFF751FD0446EC
:1016C00038E034E0FFF74CFD074604E0FFF748FD43
:1016D000C01B02282BD828688001F7D4206AB0F5F7
:1016E000803F05D16868A16820F400300843686035
:1016F000D4E908010843696821F47411084368605B
:10170000C6F86090FFF72CFD044606E025E000BF18
:10171000FFF726FD001B022809D828688001F7D5AD
:101720001BE000BFFFF71CFD001B022802D90320AD
:10173000BDE8F88F28688001F4D40EE00128F7D0C6
:101740006868226A00F48031914204D1616A00F431
:101750007010884201D00120EAE70020E8E700008D
:10176000001002400000424280044242200000205B
:101770000070004010B5401EB0F1807F01D3012001
:1017800010BD4FF0E02460610F21601701F042FDB1
:101790000020A06107202061002010BD7047704725
:1017A00010B590F83C20012A22D0012280F83C207C
:1017B000CA688C6822F4407222434C6822F480622A
:1017C00022430C6822F4006222430C6922F4805206
:1017D00022434C6922F400522243C969002322F4B7
:1017E00080420A4301684A6480F83C30002010BD02
:1017F000022010BD70B590F83C20012A2CD00124A5
:1018000080F83C40022280F83D2003685A689D68B9
:1018100022F070060A6832435A60104B02689A42FE
:101820000ED00F4B9A420BD0B2F1804F08D00D4B27
:101830009A4205D00C4B9A4202D00C4B9A4204D1EA
:10184000496825F080031943916080F83D400021EC
:1018500080F83C10084670BD022070BD002C01408D
:10186000003401400004004000080040000C00402B
:1018700010B5040003D094F83D0010B107E001203A
:1018800010BD002084F83C00204600F01FF8022024
:1018900084F83D00211D206801F062FA012084F8DF
:1018A000460084F83E0084F83F0084F8400084F845
:1018B000410084F8420084F8430084F8440084F82E
:1018C000450084F83D00002010BD000008B5264A00
:1018D00001682648914208D1C16941F00801C161FF
:1018E000C06900F00800009008BD214A91420ED165
:1018F000C16941F01001C161C069002200F010000F
:10190000009011463620FFF797FC362028E0194A50
:101910009142E9D1816941F40051816180690022DD
:1019200000F40050009011462B20FFF785FC2B207F
:10193000FFF774FC002211462C20FFF77DFC2C20C1
:10194000FFF76CFC002211462D20FFF775FC2D20BF
:10195000FFF764FC002211462E20FFF76DFC2E20BD
:10196000BDE80840FFF75ABC000C004000100240E0
:10197000001000400034014090F83D10012901D0D2
:1019800001207047022180F83D100168CA6842F0CA
:101990000102CA6000680E4988420ED00D49884293
:1019A0000BD0B0F1804F08D00B49884205D00B49CD
:1019B000884202D00A49884204D1816801F00701B7
:1019C000062903D0016841F0010101600020704741
:1019D000002C014000340140000400400008004099
:1019E000000C004070B5044690F83C00002501282A
:1019F00017D0012684F83C60022084F83D0020685E
:101A0000826822F0770222F47F42826008685028C0
:101A100038D00DDC20284FD005DC90B3102811D130
:101A20004AE0022070BD302846D040280AD13BE071
:101A300060282FD070280DD0B0F5805F03D0B0F5AE
:101A4000005F12D0012584F83D60002084F83C003E
:101A5000284670BDCB68D1E90121206801F0D3F997
:101A60002068816841F0770109E0CB68D1E9012164
:101A7000206801F0C8F92068816841F480418160E4
:101A8000E1E719E0CA684968206801F091FA50213D
:101A9000206806E0CA684968206801F09AFA602167
:101AA000206801F0BAF9CEE7CA684968206801F0F9
:101AB0007FFA40212068F4E7226801461046F0E7EB
:101AC0002DE9F0410D46040003D094F83D0018B113
:101AD00008E00120BDE8F081002084F83C002046A9
:101AE00000F040F8022084F83D002068816844F24C
:101AF000070291438160211D206801F031F92268BD
:101B000090689169166A2B68AF69034340F203300D
:101B1000814341EA0721A868EF6908434FF6FC4179
:101B20008843E96840EA0720014328692F6A0001D9
:101B300040EA0730084369686D6926F0220646EAE4
:101B40000515294393602268906154F8460B0162A1
:101B5000012004F81F09E0752076E0762077A07553
:101B60000020B7E730B585B00024009401940294BA
:101B700003940068454A4649464B904215D188690E
:101B800040F400608861886900F40060049088690E
:101B900040F0040088618869694600F00400049000
:101BA0004FF44070009018466DE03B4DB0F1804F0F
:101BB00022D03A4CC022A0424FD1C86940F0020066
:101BC000C861C86900F002000490886940F0040010
:101BD00088618869694600F0040004900092184604
:101BE000FFF7BCF9002211461D20FFF725FB1D2041
:101BF000FFF714FB05B030BDC86940F00100C861B3
:101C0000C86900F001000490886940F00400886110
:101C1000886900F004000490886940F00800886139
:101C20008869694600F0080004904FF40040009075
:101C30001846FFF793F90820CDE9000469462846C5
:101C40000294FFF78BF91648416821F4407141F086
:101C5000E06141F480714160CCE7124B9842C9D1F8
:101C6000C86940F00400C861C86900F0040004902D
:101C7000886940F0080088618869694600F00800BA
:101C8000049000922846FFF769F9B3E7002C014061
:101C90000010024000080140000C01400004004018
:101CA000000001400008004070B590F83E60044616
:101CB00090F83F5090F8423090F84320022021B134
:101CC00004290ED0012E1BD114E0012E18D1012BB6
:101CD00016D184F83E0084F84200012200212068D9
:101CE00020E0012D0CD1012A0AD184F83F0084F8AC
:101CF000430014E0012D03D1012B01D1012A01D0B1
:101D0000012070BD84F83E0084F83F0084F8420052
:101D100084F8430001220021206801F067F80122C5
:101D20000421206801F062F82068016841F0010197
:101D30000160002070BD704770B5044600680169FD
:101D40004FF00005C943890715D4C168C943890705
:101D500011D4E91E01610120207720688069800785
:101D6000204602D0FFF7E7FF04E000F0D5F8204658
:101D700000F067F9257720680169C943490717D43E
:101D8000C168C943490713D46FF0040101610220FF
:101D900020772068806910F4407F204602D0FFF74A
:101DA000CAFF04E000F0B8F8204600F04AF92577B1
:101DB00020680169C943090716D4C168C9430907E6
:101DC00012D46FF008010161042020772068C069F7
:101DD0008007204602D0FFF7AEFF04E000F09CF839
:101DE000204600F02EF9257720680169C943C9060D
:101DF00017D4C168C943C90613D46FF0100101613B
:101E0000082020772068C06910F4407F204602D067
:101E1000FFF791FF04E000F07FF8204600F011F991
:101E2000257720680169C943C90708D1C168C9433A
:101E3000C90704D1891E0161204600F05DF92068C0
:101E40000169C943090609D4C168C943090605D413
:101E50006FF0800101612046FFF7A0FC2068016956
:101E6000C943490609D4C168C943490605D46FF07E
:101E700040010161204600F04BF920680169C94327
:101E800089060BD4C168C943890607D46FF02001C5
:101E900001612046BDE87040FFF781BC70BD0000C5
:101EA00000B585B000210091019102910391154B7D
:101EB0000268154802219A420ED1826942F004025A
:101EC00082618069039100F0040004900620CDE94E
:101ED000000169460D4811E00D4B9A4210D182690C
:101EE00042F0100282618069039100F010000490BA
:101EF0004FF41070CDE9000169460648FFF72EF84F
:101F000005B000BD000C0040001002400008014078
:101F10000034014000100140704770B5044690F84D
:101F20003C0000260D4601280FD0012084F83C001B
:101F30006AB1042A1DD0082A2FD00C2A3FD00126CE
:101F4000002084F83C00304670BD022070BD20683F
:101F500000F06CFF2068816941F008018161206810
:101F6000816921F004018161206881692A69114336
:101F700011E0206800F08AFF2068816941F4006167
:101F800081612068816921F48061816120688169B3
:101F90002A6941EA02218161D2E7206800F0ACFFA2
:101FA0002068C16941F00801C1612068C16921F060
:101FB0000401C1612068C1692A69114311E02068E8
:101FC00000F0CEFF2068C16941F40061C161206862
:101FD000C16921F48061C1612068C1692A6941EA4F
:101FE0000221C161ACE710B5040003D094F83D00B4
:101FF00010B107E0012010BD002084F83C0020460D
:1020000000F01EF8022084F83D00211D206800F039
:10201000A7FE012084F8460084F83E0084F83F00C3
:1020200084F8400084F8410084F8420084F84300BA
:1020300084F8440084F8450084F83D00002010BD79
:102040007047704710B50446022249B104290ED0EA
:10205000082913D094F84100012816D0012010BDA2
:1020600094F83E000128F9D184F83E200FE094F85E
:102070003F000128F2D184F83F2008E094F84000A6
:102080000128EBD184F8402001E084F841200122AE
:10209000206800F0ABFE13492068134A884201D043
:1020A000904203D1436C43F4004343642068884268
:1020B0000DD090420BD0B0F1804F08D00B49884230
:1020C00005D00B49884202D00A49884204D1816870
:1020D00001F00701062903D0016841F00101016008
:1020E000002010BD002C01400034014000040040DD
:1020F00000080040000C00400349884202D1034917
:102100000120087070470000FC0200201000002031
:102110007047704770470000F8B5016804460868CA
:10212000CA684B6910F00F0F4FF0000559D003F04B
:10213000010602F49077374365D0C10705D0D10579
:1021400003D5616C41F001016164410705D5D907F0
:1021500003D0616C41F002016164810705D5D907A4
:1021600003D0616C41F004016164010707D502F0FE
:102170002001314303D0616C41F008016164616C5E
:1021800000293AD0800604D5900602D5204600F0FA
:1021900068FF20684069616CC0F38010090700D4B3
:1021A00060B3204600F036FF20684069400621D524
:1021B0002068143050E8001F21F0400140E8001270
:1021C000002AF5D1E06BA8B16D494163E06BFEF7E1
:1021D0002DFE002811D0E06B416B01B0BDE8F0404E
:1021E000084783060FD593060DD52046BDE8F84075
:1021F00000F037BF2046FFF78DFFF8BD2046FFF700
:1022000089FF6564F8BD266B2023012E7CD1C606AC
:102210007AD5D60678D508684868009048694FF0A6
:102220000206400640D5E16B086840680004000CD7
:10223000E8D0A28D8242E5D9E085886920282DD09A
:1022400020680C3050E8001F21F4807140E8001233
:10225000002AF5D12068143050E8001F21F0010158
:1022600040E80012002AF5D12068143050E8001F21
:1022700021F0400140E80012002AF5D184F84230F4
:10228000256320680C3050E8001F21F0100140E861
:102290000012002AF5D1E06BFEF7A4FD6663A08D65
:1022A000E18D401A81B22AE0A08DE18D401A81B201
:1022B000E08D0028A6D00029A4D022680C3252E874
:1022C000000F20F4907042E80007002FF5D120683D
:1022D000143050E8002F22F0010240E80027002FC0
:1022E000F5D184F84230256320680C3050E8002F87
:1022F00022F0100240E80023002BF5D1666320464F
:10230000FFF707FFF8BDFFE705062BD5150629D512
:1023100094F841002128F5D1A068B0F5805F01D183
:102320002069B0B1206A411C2162216800784860B0
:10233000E08C401E0004000CE084E3D12068C168FA
:1023400021F08001C1602068C16841F04001C16096
:10235000D8E7206A0088C0F308004860206A801C23
:102360002062E5E74006CDD55006CBD5CA682046A9
:1023700022F04002CA6084F8413000F093F8C1E7CF
:102380000530000870B5040004D094F84100002521
:1023900010B106E0012070BD84F84050204600F0E6
:1023A00023F8242084F841002068C16821F40051FA
:1023B000C160204600F0B6FE2068016921F490411A
:1023C00001612068416921F02A0141612068C168EA
:1023D00041F40051C1606564202084F8410084F814
:1023E00042006563002070BD30B585B000240094C4
:1023F0000194029403940068184988422CD118482B
:10240000C16941F40021C161C16901F40021049155
:10241000816941F0100181618069124D00F0100066
:1024200004904FF4806000900220019003200390FC
:1024300069462846FEF792FDE814CDE90004694696
:1024400028460294FEF78AFD002211463420FEF74A
:10245000F3FE3420FEF7E2FE05B030BD004C004034
:10246000001002400010014090F84230202B01D0B3
:102470000220704721B11AB10023036300F0AEBE01
:10248000012070470549884206D1054901200246CE
:1024900088700248FFF7E8BF704700008C030020F7
:1024A000080000207047FEE72DE9F04186B00024C7
:1024B00028480094019402940394816941F020011A
:1024C0008161816901F020010491816941F0040179
:1024D0008161816901F004010491816941F0080181
:1024E0008161816901F008010491816941F0100165
:1024F00081618069184F00F010004FF4436504902B
:10250000002229463846FEF725FEDFF850800022DB
:1025100043F203014046FEF71DFE01224FF44071D5
:102520004046FEF717FE0095022601250396CDE9E9
:10253000015469463846FEF711FD43F20330CDE9F8
:102540000005CDE9024669464046FEF707FD06B0A4
:10255000BDE8F0810010024000080140000C01407D
:1025600010B58CB024216846FDF750FE00241648B3
:10257000099414490A94C0E900144FF6FE71C0E9A9
:1025800002410461446184610320CDE9000401201B
:10259000CDE902040494CDE90540079469460A4850
:1025A0000894FFF78DFA08B1FEF7DAFB099409A940
:1025B00005480A94FFF71EF9002801D0FEF7D0FB6A
:1025C0000CB010BD002C01409401002010B58CB05F
:1025D00024216846FDF71AFE0024154809944FF09F
:1025E00080410A94C0E900144FF6FE71C0E902412F
:1025F000046184610320CDE900040120CDE90204D7
:102600000494CDE905400794694609480894FFF70A
:1026100057FA08B1FEF7A4FB099409A904480A94E3
:10262000FFF7E8F8002801D0FEF79AFB0CB010BDC8
:10263000DC01002010B58CB024216846FDF7E6FDD2
:1026400000241648099414490A94C0E900144FF66E
:10265000FE71C0E90241046184610320CDE90004F8
:102660000120CDE902040494CDE9054007946946B0
:102670000A480894FFF724FA08B1FEF771FB0994A1
:1026800009A906480A94FFF7B5F8002801D0FEF71B
:1026900067FB0CB010BD00000004004024020020C5
:1026A00010B58CB024216846FDF7B0FD0024164813
:1026B000099414490A94C0E900144FF6FF71C0E967
:1026C0000241046184610320CDE900040120CDE9C9
:1026D00002040494CDE90540079469460A48089429
:1026E000FFF7EEF908B1FEF73BFB099409A906488C
:1026F0000A94FFF77FF8002801D0FEF731FB0CB0F9
:1027000010BD0000000800406C02002010B58EB023
:1027100000240794089409940A940B941C21684699
:102720000C94FDF773FD2348214901602521C0E980
:10273000011440F2E731C0E903148461FFF798F80F
:1027400008B1FEF70DFB4FF48050079007A9194818
:10275000FFF748F908B1FEF703FB1648FFF743FC03
:1027600008B1FEF7FDFA0B940BA912480C94FFF781
:1027700041F808B1FEF7F4FA602000901E20CDE980
:102780000104042269460B480494FFF7C6FB08B114
:10279000FEF7E6FA082269460648FFF7BEFB08B1D5
:1027A000FEF7DEFA0348FFF77BFB0EB010BD00001A
:1027B000000C0040B40200201CB500240F48009417
:1027C0000D490194016040F28331C0E9011440F6E3
:1027D0009F718461C160FFF74BF808B1FEF7C0FA42
:1027E0000094694605480194FFF704F8002801D0D9
:1027F000FEF7B6FA1CBD000000100040FC020020ED
:1028000010B596B000240F94109411941294139460
:102810001C2168461494FDF7F9FC202107A8FDF758
:10282000F5FC2D482B4901602521C0E9011440F237
:10283000E731C0E9031444618461FFF719F808B176
:10284000FEF78EFA4FF480500F900FA92248FFF741
:10285000C9F808B1FEF784FA1F48FFF7C4FB08B1B6
:10286000FEF77EFA139413A91B481494FEF7C2FFD7
:1028700008B1FEF775FA602000901420CDE901043C
:102880000394049405940022694613480694FFF7C4
:1028900044FB08B1FEF764FA0C2269460E48FFF7C4
:1028A0003CFB08B1FEF75CFA0794089409944FF4D6
:1028B00000500A94CDE90B4007A907480E94FEF793
:1028C0006FFF08B1FEF74CFA0348FFF7E9FA16B0BC
:1028D00010BD000000340140440300200C4810B536
:1028E0000A4901604FF416514160002181600C22B9
:1028F000C160C0E904128161C161FFF743FD002896
:1029000003D0BDE81040FEF72BBA10BD004C0040CC
:102910008C030020FEE7FEE770B50024002120466E
:1029200000F0CDF80025002000F05EF96D1CEDB23E
:10293000802DF8D3641CE4B2082CEFD370BD0000E6
:102940002DE9F047144E002407464FF080084FF45D
:102950000079B51528FA04F23A4049463046FEF7A8
:10296000F9FB012229463046FEF7F4FB00222946F6
:102970003046FEF7EFFB641CE4B2082CEAD30122D8
:1029800029463046FEF7E6FB29463046BDE8F047CB
:102990000022FEF7DFBB0000000C014070B50122F1
:1029A0000B4D540221462846FEF7D4FB01221602A5
:1029B00031462846FEF7CEFB002221462846FEF788
:1029C000C9FB31462846BDE870400022FEF7C2BB75
:1029D000000C014070B50A4D4FF4007400222146EE
:1029E0002846FEF7B7FB012211022846FEF7B2FB8C
:1029F00021462846BDE870400122FEF7ABBB00002F
:102A0000000C014010B500204FF47A720021491CDF
:102A10009142FCD3401C9042F8D3FFF745FDAE2015
:102A200000F0D1F8D52000F0CEF8802000F0CBF8EF
:102A3000A82000F0C8F83F2000F0C5F8D32000F02F
:102A4000C2F8002000F0BFF8402000F0BCF8A12040
:102A500000F0B9F8C82000F0B6F8DA2000F0B3F8BA
:102A6000122000F0B0F8812000F0ADF8CF2000F087
:102A7000AAF8D92000F0A7F8F12000F0A4F8DB2094
:102A800000F0A1F8302000F09EF8A42000F09BF8A0
:102A9000A62000F098F88D2000F095F8142000F0A2
:102AA00092F8AF2000F08FF8BDE81040FFF734BF78
:102AB0000246012000E05043491EFCD2704710B589
:102AC0000C4640F0B00000F07EF8102040EA1410F0
:102AD00000F079F804F00F00BDE8104000F073B882
:102AE0002DE9F0410746CE004000083E801E154605
:102AF0004FF0FF38F1B2C0B2FFF7E1FF11480024F8
:102B000000EB05152819A0F5805090F8000E00F094
:102B10006BF8641CE4B2082CF4D308EB4700F1B264
:102B2000C0B2FFF7CCFF00242819A0F5805090F820
:102B3000080E00F059F8641CE4B2082CF4D3BDE888
:102B4000F0810000963E00082DE9F0471E46140073
:102B50008846814604D42B22FFF7C2FF254603E0B6
:102B60002D22FFF7BDFF654200240A2714E0311B28
:102B70000A20491EFFF79CFFB5FBF0F0B0FBF7F110
:102B800007FB110208EB0400401CC1B2484630327A
:102B9000FFF7A6FF641CE4B2B442E8D3BDE8F087B7
:102BA0002DE9F04115460E460746002406E030198F
:102BB000C1B23846FFF794FF641CE4B22A5D002AD4
:102BC000F5D1BDE8F08110B50446FFF7E7FE7820A7
:102BD000FFF7B6FE0020FFF7B3FE2046FFF7B0FE7A
:102BE000BDE81040FFF7F6BE10B50446FFF7D6FE6D
:102BF0007820FFF7A5FE4020FFF7A2FE2046FFF752
:102C00009FFEBDE81040FFF7E5BE00002DE9FC4146
:102C10000F460446DDE908101D461646104A0A9B79
:102C2000E2634BB1CDE900102B46324639462046CF
:102C300000F056FDBDE8FC810A4A2264CDE900108F
:102C40002B4632463946204600F04AFDD4F840C0B3
:102C500002B02B46324639462046BDE8F041604777
:102C6000E1360008FD3600087047704710B500F0E7
:102C70009DFE044A044B00F09BFDBDE8104000F0AF
:102C80004FBD0000AE47E17A14AEFB3F012080F358
:102C90001388BFF34F8F05480168054A01F4E061CE
:102CA00011430160BFF34F8F00BFFDE70CED00E063
:102CB0000400FA05FEF75ABA30B58FB028216846ED
:102CC000FDF7A4FA14210AA8FDF7A0FA01210804CF
:102CD000CDE900100024029402250491CDE90750AB
:102CE0004FF4E01009906846FEF7B4FB08B172B6E5
:102CF000FEE70F20CDE90A054FF48060CDE90C40D6
:102D000002210AA80E94FEF7C9FA002801D072B673
:102D1000FEE70FB030BD70470148FFF70DB8000067
:102D2000240200200148FFF707B80000FC02002041
:102D30000148FFF701B80000440300200148FEF7F6
:102D4000FBBF0000440300200148FEF7F5BF000070
:102D5000440300200148FEF7EFBF000044030020B9
:102D6000F0B502681C4B1D4D1D4E1E4F1E4C4FF002
:102D7000804C984209D0A04207D0604505D0A842B7
:102D800003D0B04201D0B84204D122F0700E4A689C
:102D900042EA0E02984209D0A04207D0604505D011
:102DA000A84203D0B04201D0B84203D122F440750A
:102DB000CA682A434D6922F080022A4302608A6869
:102DC000C2620A688262984201D0A04201D10969B8
:102DD000016301214161F0BD002C0140000400406D
:102DE00000080040000C00400034014010B501F024
:102DF0001F030121046A99408C430462016A9A40CE
:102E00001143016210BD10B5846842EA032224F424
:102E10007F440A432243826010BD826822F0700220
:102E20000A4342F00701816070470000F0B5036A71
:102E3000026A22F00102026242688469124E24F0A2
:102E400073050C682C4323F002058B682B430D4D52
:102E5000A84201D0B04205D123F00807CB683B431C
:102E600023F00403A84201D0B04205D14D6922F4F9
:102E7000407215438A692A4342608461496841630C
:102E80000362F0BD002C014000340140F0B5026A3D
:102E9000036A23F010030362436884690D6824F415
:102EA000E64444EA05248D6822F0200242EA051235
:102EB0000F4D104EA84201D0B04206D1CF6822F08B
:102EC000800242EA071222F04002A84201D0B0423A
:102ED00007D14D6923F4406343EA85038D6943EAD2
:102EE000850343608461496881630262F0BD00002C
:102EF000002C014000340140F0B5026A036A23F45B
:102F0000807303624368C46922F4007224F073057D
:102F10000C68124E2C438D6842EA05220E4DA842E1
:102F200001D0B04206D1CF6822F4006242EA072203
:102F300022F48062A84201D0B04207D14D6923F447
:102F4000405343EA05138D6943EA05134360C461A6
:102F50004968C1630262F0BD002C014000340140A9
:102F600030B5046A026A22F4805202624268C36980
:102F70000D6823F4E64343EA05238D6824F40054E6
:102F800044EA0534084DA84202D0084DA84204D1B5
:102F90004D6922F4804242EA85124260C361496869
:102FA0000164046230BD0000002C01400034014087
:102FB00010B5036A046A24F001040462846924F0F1
:102FC000F00444EA021423F00A020A438461026214
:102FD00010BD10B5036A046A24F010040462846909
:102FE00023F0A00324F4704444EA023243EA0111BE
:102FF0008261016210BD00000148FFF78DB800003A
:103000008C03002010B5406A0021C185C184FFF700
:1030100081F810BD01680C3151E8002F22F4907244
:1030200041E80023002BF5D10168143151E8002F4D
:1030300022F0010241E80023002BF5D1016B0129A8
:1030400009D101680C3151E8002F22F0100241E84B
:103050000023002BF5D1202180F8421000210163CC
:10306000704708B590F84210222901D0022008BD0F
:1030700082684FF480539A4201D1016921B1816A7B
:103080009A421BD04AB10AE00268816A5268C2F3D0
:1030900008020A80816A891C08E0026972B102682C
:1030A000526802F07F020A70816A491C8162C18DF8
:1030B000491E0904090CC18503D01BE0026852684F
:1030C000F1E70168CA6822F02002CA600168CA6894
:1030D00022F48072CA6001684A6922F001024A61E2
:1030E000202180F8421000214163026B012A03D0A5
:1030F000FFF7C8F9002008BD016301680C3151E8F1
:10310000002F22F0100241E80023002BF5D10168C6
:103110000A68D20602D50A6849680091818DFEF7D7
:10312000F8FFE7E770B5044600680169E26821F43A
:103130004051114301612169A06808436169084356
:103140002168CA6841F20C639A430243CA6020684E
:103150004169A26921F44071114341611E4920680F
:10316000884202D1FEF740F901E0FEF72DF900EBAD
:10317000C00101EB0012606864218000B2FBF0F333
:10318000B3FBF1F36FF018067343B2FBF0F5B2FB3B
:10319000F0F605EB8305322303EB0515B5FBF1F5DE
:1031A000B6FBF1F605F0F00505EB0615B2FBF0F6FF
:1031B000B2FBF0F0B0FBF1F06FF01802504306EBF9
:1031C000800003EB0010B0FBF1F0216800F00F006D
:1031D0002844886070BD000000380140816282850B
:1031E000C28500214164222180F84210016921B189
:1031F0000168CA6842F48072CA6001684A6942F094
:1032000001024A610068C16841F02001C1600020EC
:103210007047FEE70907090E002804DB00F1E020F3
:1032200080F80014704700F00F0000F1E02080F8F3
:10323000141D704770B504460D46084600F06CFC3E
:103240000646684200F068FC05463046216800F0FA
:103250007BFC00D226602846216800F075FD00D274
:10326000256070BD10B51149114C00280ADD00F031
:103270004FFA09688863002201212046FDF76AFFA2
:1032800001220CE001DAC0F1000000F041FA096807
:103290008863012211462046FDF75CFF002220468C
:1032A000BDE810400221FDF755BF0000B402002028
:1032B000000C014070B54FF48051104A104C4D0085
:1032C000002809DD00F024FA1268D06300222046AD
:1032D000FDF740FF01220BE001DAC0F1000000F031
:1032E00017FA1268D06301222046FDF733FF00224F
:1032F00029462046BDE87040FDF72CBFB4020020EF
:10330000000C014010B51149114C00280ADD00F0F5
:10331000FFF909684863002210212046FDF71AFFD3
:1033200001220CE001DAC0F1000000F0F1F90968B7
:103330004863012210212046FDF70CFF00222046A1
:10334000BDE810402021FDF705BF00004403002028
:103350000008014070B54FF48061104A104C4D00D8
:10336000002809DD00F0D4F912681064002220461C
:10337000FDF7F0FE01220BE001DAC0F1000000F0E1
:10338000C7F91268106401222046FDF7E3FE00220F
:1033900029462046BDE87040FDF7DCBE440300200E
:1033A000000801401A4910B50878487041380A28C9
:1033B00028D2DFE800F005090D112715191D212578
:1033C000BDE81040FDF778B9BDE81040FDF7DAB868
:1033D000BDE81040FDF768BABDE81040FDF706BA39
:1033E000BDE81040FDF76ABBBDE81040FDF7BABA72
:1033F000BDE81040FDF71AB8BDE81040FCF76ABF01
:10340000FFF744FC00F006F8BDE81040FDF702BCF1
:103410000800002000220B4B104600BFC2EBC20187
:1034200001EB021103EB8101521C48618861C86104
:10343000C862086348638863042AEFDB02490870A6
:103440007047000024000020000000200EB5FDF7AA
:1034500095FEFFF731FCFFF727F8FFF781F8FFF73C
:10346000B5F8FFF7E7F8FFF71BF9FFF74FF9FFF79C
:10347000C7F9FFF733FAFFF79FF9FFF7C3FA604880
:10348000FEF77AFA5F48FEF777FA04215E48FEF706
:10349000D9FD08215C48FEF7D5FD00215948FEF70B
:1034A000D1FD0C215748FEF7CDFD04215748FEF70A
:1034B000FBFB04215648FEF7F7FB04215548FEF7B5
:1034C000F3FB04215448FEF7EFFBFFF7A3FF534C37
:1034D0004FF47A764FF4617520780096CDE901506B
:1034E000DFF83C91DFF83CA14F4F4B46524639463E
:1034F0004E48FFF78BFB20780096CDE90150DFF8AE
:1035000030814A484B46524641465C30FFF77EFBCD
:1035100020780096CDE9015044484B465246394642
:10352000B830FFF773FB20780096CDE901504B4689
:10353000524641463F48FFF769FB01223E493F485A
:10354000FEF792FF394E00250C3E75603566C6F8D1
:10355000BC50C6F81851FFF7DFF9394FFFF722FFCB
:10356000387828B1FDF766FB6088401C60803D70AC
:1035700060881228F2D933A202210120FFF710FB44
:10358000306880F0004000F0ABFA024603230B21C4
:103590000120FFF7D9FA02212DA20846FFF700FB10
:1035A000F06D80F0004000F09BFA024603230B21EF
:1035B0000220FFF7C9FA29A202210320FFF7F0FA3F
:1035C000D6F8B80080F0004000F08AFA02460323E3
:1035D0000B211846FFF7B8FA23A202210420FFF7B7
:1035E000DFFAD6F8140180F0004000F079FA0246C4
:1035F00003230B210420FFF7A7FA6580AEE7000044
:10360000FC02002044030020B402002094010020AA
:10361000DC010020240200206C0200200C000020AD
:103620000000A0406F1283396666464030000020DB
:103630006666064044010020080000208C0300203C
:10364000100000204D315F73706565643A00000022
:103650004D325F73706565643A0000004D335F73EF
:10366000706565643A0000004D345F737065656491
:103670003A00000070B504461046C4E9002100F08D
:1036800095FB0546A0602946606900F091FA20622A
:103690002946A06900F08CFA616A00F0B3F9606213
:1036A0002846E16800F082FBE16900F081FAA0623F
:1036B00004F12400616BFFF7BDFDD4E9080100F0BF
:1036C000A1F9A16A00F09EF9E06204F12C00216BDF
:1036D000FFF7B0FDE0682061A068E060E06A70BDBF
:1036E00030B500F1140CDDE9034504638CE80E00ED
:1036F0000149C0E90D5130BD0000A04000F1140C9B
:103700008CE80E000021016241628162C162704753
:10371000B0F57A7F01DB40F2E73080B270470000FD
:1037200021F00042A2F16052B2F5801F01F0004387
:1037300028BFD2F17F6C0BD95FEA001C43EAC202BA
:1037400042EB507018BF704728BF20F0010070474F
:10375000B2F5801FBCBF184670474FEA410C1CF5FC
:10376000001F02D2084600F0EABA70B500F0CAF8AD
:1037700000000089FFF7F6BF4FF00040A0F5800081
:10378000704710F0004248BF4042B0FA80F310FA90
:1037900003F10AD0C3F11D0303F580634FEA4150E2
:1037A00002EB035202EBD12170474FF0000070474B
:1037B000DFF848C170B51CEA111E1EBF1CEA1315C4
:1037C0009EEA0C0F95EA0C0F00F06F8081EA03046B
:1037D00023EA4C134EEAD47E21EA4C1141F48011C5
:1037E00043F48013AE44A1FB024CA0FB0365AEF191
:1037F0007F7E361955EB0C05A1FB034C4CF1000301
:10380000A0FB021C16EB0C06654153F100030942B4
:1038100018BF46F0010613F4007F0BD14FEA0331C5
:103820004FEA0530340341EA155140EA16506FF073
:1038300003020AE04FEAC3214FEAC520F40241EA3D
:10384000555140EA56506FF0020202EB2E4201EB56
:10385000025585EACE710AD05FEA440C18BF24F005
:10386000004450F1000041F1000120EAD47040F220
:10387000FE7C624500D270BDA84214BF4FF0804468
:103880004FF04044002E08BF0024BEF1806FA8BF57
:10389000A1F1C041BDE8704080F282804FF000008D
:1038A00001F1C04101F0004170479EEA0C0F0CEAA3
:1038B000131518BF95EA0C0F06D04FF0000081EAEF
:1038C000030E0EF0004170BD00F01CF88900013EAF
:1038D00000F007B800F009B84FEA430C5FEA5C5CFF
:1038E00008D081EA030100F05BB84FEA410C5FEABF
:1038F0005C5CF6D14FF00000014970470000FF0703
:103900000000F87F0EF1020E2EF0030E5EF8046B3D
:10391000364205D4012A43EB030515F5001F12D8E2
:10392000012841EB010C1CF5001F0CD80ED14FEA09
:10393000D17C15F5001F0CEB4C0C0CF1020C08BFF0
:103940004CEBD37C04E04FF0080C01E04FEAD37C51
:103950000CEB4C0526FA05F606F00706B6F1040C4A
:1039600006D20EEB860CBDE870404CF0010C6047AF
:10397000DFE80CF0090B02024FF000414FF00000AD
:10398000A1F5002170BD19461046012851EB010434
:1039900018BFD4F5001484BF002001F0004170BDB1
:1039A0000808A0F500114FEA3101704743004FEAC3
:1039B000D30C4FEA3C0C43401FBF40070CF1605151
:1039C00013F0FE4F70471CF0006F03D100200CF085
:1039D000004170470CF0004343EA507010B540EAD4
:1039E000CC0000F066F900BF000000924FEA000131
:1039F000FFF7D6BF4FF000414FF00000A1F50021C6
:103A00007047000090EA010F48BF81F0004100F1CB
:103A1000D481421A3CBF801A89184FEAD0524FF025
:103A20007F4C1CEA410FA2EBD15318BF9CEA026FF6
:103A300000F03B804FF0004C4CEA00204CEA0121A2
:103A400021FA03FC10EB0C0C1ED202F1FF325FEAEC
:103A50001C2040EBC25038BF70471CF07F0F4FEA6C
:103A6000400C18BFBCF17F4F38BF7047C3F1200333
:103A7000994008BF20F00100BCF17F4F38BF70476C
:103A8000A0F1C04000F05BB94FEA3C00000A40EBF7
:103A9000C25028BF1CF0FF0F4FEA400CE6D018BF01
:103AA000BCF17F4F38BF7047EAE79CEA026F05D050
:103AB00010EA5C0F08BF00F00040704710B500F03E
:103AC000F8F800BF64FBBE3E401058BFC0F1404054
:103AD000491058BFC1F140418142EFF30080704767
:103AE00041000B0ED3F19E0208D950F400034FEAB7
:103AF000032323FA02F048BF4042704710B500F09C
:103B0000D8F800BF49922480002070476FF000422F
:103B100082EA20007047000010F0004148BF404298
:103B2000B0FA80F310FA03F2C3F19D030BD051EA0F
:103B3000C35101EB1220530638BF704700F101005A
:103B400008BF20F00100704750EA010C00F113801B
:103B50001CF5000F58BFBCF5000F01D48842704718
:103B600007D710F5000F58BF11F5000F15D4884284
:103B70007047894270471CF5000F04D5BCF5000F53
:103B8000F7D5814270474FF0807C1CEB400F38BF67
:103B90001CEB410F01D28142704710B500F089F84B
:103BA000922449004FF000504FF08051FFF78CBF36
:103BB0004FF47F0C1CEAD0121EBF1CEAD11392EA0C
:103BC0000C0F93EA0C0F00F0478090EA010F48BFFA
:103BD00042F480724FF0004C4CEA00204CEA012184
:103BE00002EB0302A0FB0113A2F50002002918BF9B
:103BF00043F001035B0028BF4FEA330342EB22424C
:103C00005FEA132C4CEBC2502EBFBCEB436FB2F5F6
:103C10007C0F70474FEA036CBCF1004F08BF20F0E7
:103C20000100B2F57C0F38BF70470BD582F0FF0260
:103C300012F5803FC8BF704700F1C040D8BF00F008
:103C40000040704700F5000C5FEA4C0C48BF70471D
:103C5000B0F1C04000F073B890EA010F0CEAD11344
:103C600048BF42F48072624538BF634504D280EA9F
:103C7000010000F00040704710B500F01AF800BFD6
:103C80008900013E00F007B800F009B85FEA410C76
:103C90005FEA1C6C08D080EA010000F050B85FEACF
:103CA000400C5FEA1C6CF6D14FF00040A0F580009C
:103CB00070470EF1020E2EF0030E5EF8044B244204
:103CC00004D44FEA4102B2F17F4F11D84FEA4003CA
:103CD000B3F17F4F0CD80ED14FEAD07CB2F17F4FB9
:103CE0000CEB4C0C0CF1020C08BF4CEBD17C04E04B
:103CF0004FF0080C01E04FEAD17C0CEB4C0324FAA6
:103D000003F404F00704B4F1040C06D20EEB840CA7
:103D1000BDE810404CF0010C6047DFE80CF00708EC
:103D200002024FF00040A0F5800010BD084642009E
:103D300018BFD2F1807288BF00F0004010BDFF2193
:103D400041EAD050C005704751EA000C00F11380E1
:103D50001CF5000F58BFBCF5000F01D4814270471D
:103D600007D711F5000F58BF10F5000F15D4814289
:103D70007047894270471CF5000F04D5BCF5000F51
:103D8000F7D5884270474FF0807C1CEB410F38BF5D
:103D90001CEB400F01D28842704780EA010081EAA3
:103DA000000180EA0100FFF7F8BE000090EA010F71
:103DB00048BF81F000413FF52CAE421A04D882F092
:103DC0000042A0EB020011444FEAD0524FF07F4C6A
:103DD0001CEA410FA2EBD15318BF9CEA026F4AD0F4
:103DE0004FF0004C4CEA00204CEA012121FA03FC80
:103DF000B0EB0C0C0FD412F0FE0F36D05FEA4C0083
:103E00001DD5001240EBC25038BF70471CF03F0F69
:103E100018BF70470BE0A2F101025FEA1C2040EBE3
:103E2000C25038BF70471CF07F0F18BF7047C3F1F6
:103E30002003994014BF401E20F001007047800805
:103E40004FEA122308BF7047B0FA80FCA2EB0C02C5
:103E5000CCF1280C60FA0CF093EA122F04BF00EBAF
:103E6000C25070474FEAC3707047130A5FEADC1014
:103E700008BF7047F6E79CEA026F04D010EA5C0FB7
:103E800008BF0020704710B5FFF713FF40DFF63E74
:103E900081F00040704700000000000000000000BA
:103EA000000000000000000000F80000000000001A
:103EB00000333000000000100C06100C060000005B
:103EC00000000000000040C07840C0784000043F7F
:103ED00004043F040400007088FC0830000000184F
:103EE00020FF211E0000F008F000E0180000002173
:103EF0001C031E211E0000F00888700000001E2117
:103F000023241927211010160E00000000000000C5
:103F1000000000000000000000E0180402000000A3
:103F200000071820400000020418E00000000040D4
:103F3000201807000000404080F08040400002024E
:103F4000010F01020200000000F00000000001016A
:103F5000011F01010100000000000000000080B00E
:103F600070000000000000000000000000000001E0
:103F7000010101010101000000000000000000300B
:103F800030000000000000000000806018040060A5
:103F900018060100000000E010080810E000000F03
:103FA000102020100F00001010F80000000000206A
:103FB000203F2020000000700808088870000030B2
:103FC000282422213000003008888848300000185A
:103FD000202020110E000000C02010F80000000773
:103FE0000424243F240000F80888880808000019E9
:103FF000212020110E0000E0108888180000000F1A
:10400000112020110E0000380808C83808000000F0
:10401000003F000000000070880808887000001C45
:10402000222121221C0000E010080810E0000000FE
:10403000312222110F00000000C0C000000000006B
:104040000030300000000000008000000000000090
:104050008060000000000000804020100800000187
:10406000020408102000404040404040400004044A
:104070000404040404000008102040800000002014
:10408000100804020100007048080808F000000051
:10409000003036010000C030C828E810E0000718E2
:1040A000272423140B000000C038E0000000203C4F
:1040B00023020227382008F8888888700000203FF3
:1040C000202020110E00C03008080808380007180A
:1040D00020202010080008F808080810E000203F01
:1040E000202020100F0008F88888E8081000203FE2
:1040F00020202320180008F88888E8081000203FB6
:10410000200003000000C03008080838000007182D
:104110002020221E020008F808000008F808203FAE
:10412000210101213F20000808F8080800000020B4
:10413000203F2020000000000808F8080800C08088
:1041400080807F00000008F888C028180800203F01
:1041500020012638200008F8080000000000203F59
:1041600020202020300008F8F800F8F80800203F50
:10417000003F003F200008F830C00008F808203F4A
:10418000200007183F00E01008080810E0000F109A
:10419000202020100F0008F808080808F000203F31
:1041A000210101010000E01008080810E0000F18CC
:1041B000242438504F0008F8888888887000203FF1
:1041C0002000030C302000708808080838000038F0
:1041D000202121221C00180808F8080818000000F7
:1041E000203F2000000008F808000008F808001F21
:1041F000202020201F000878880000C83808000010
:1042000007380E010000F80800F80008F800033C29
:104210000700073C030008186880806818082030F1
:104220002C03032C30200838C800C83808000000D0
:10423000203F2000000010080808C8380800203877
:10424000262120201800000000FE020202000000CB
:10425000007F40404000000C30C000000000000023
:1042600000010638C00000020202FE00000000400B
:1042700040407F0000000000040202020400000031
:10428000000000000000000000000000000080802E
:104290008080808080800002020400000000000016
:1042A00000000000000000008080808000000019F5
:1042B000242222223F2008F8008080000000003FD6
:1042C000112020110E000000008080800000000EF0
:1042D000112020201100000000808088F800000ECE
:1042E000112020103F200000808080800000001FEF
:1042F000222222221300008080F088888818002063
:10430000203F202000000000808080808000006B23
:1043100094949493600008F8008080800000203F0F
:10432000210000203F20008098980000000000201D
:10433000203F20200000000000809898000000C06E
:104340008080807F000008F8000080808000203F8F
:1043500024022D302000000808F800000000002092
:10436000203F202000008080808080808000203FCF
:1043700020003F20003F8080008080800000203FA0
:10438000210000203F200000808080800000001F6E
:10439000202020201F00808000808000000080FFFF
:1043A000A12020110E000000008080808000000EFF
:1043B000112020A0FF80808080008080800020204D
:1043C0003F212000010000008080808080000033B9
:1043D000242424241900008080E080800000000054
:1043E000001F202000008080000000808000001F4F
:1043F000202020103F2080808000008080800001ED
:104400000E300806010080800080008080800F3020
:104410000C030C300F0000808000808080000020A2
:10442000312E0E31200080808000008080808081CD
:104430008E7018060100008080808080800000213E
:10444000302C2221300000000000807C020200009D
:104450000000003F404000000000FF00000000009E
:104460000000FF0000000002027C8000000000400D
:10447000403F0000000000060101020204040000A9
:1044800000000000000001020203040506070809FD
:104490000A0B0C0D0E0F10100000000000000000B1
:1044A00001020304060708090000000001020304DA
:1044B000D044000800000020240000006C01000827
:1044C000F444000824000020140A000088010008B9
:1044D00000000000000000000000000001000000DB
:1044E00000000000010000001000000000000000BB
:0444F0000024F400B0
:0400000508000131BD
:00000001FF
